{
  "transactions": [
    {
      "hash": "0xfaa67b7c6355bedb8469597f7848cfc7d213272c9dc0c7df7d079c36dc978003",
      "transactionType": "CALL",
      "contractName": null,
      "contractAddress": "0x625f1feeecea55c5500726b48df8a568be4a1f26",
      "function": null,
      "arguments": null,
      "transaction": {
        "from": "0xf39fd6e51aad88f6f4ce6ab8827279cfffb92266",
        "to": "0x625f1feeecea55c5500726b48df8a568be4a1f26",
        "gas": "0x714d",
        "value": "0xde0b6b3a7640000",
        "input": "0x",
        "nonce": "0x7",
        "chainId": "0x7a69"
      },
      "additionalContracts": [],
      "isFixedGasLimit": false
    },
    {
      "hash": "0x83ae3da0130b1734bf3a06e630230dfd7ba06cc1c3465a95b56336b80c3a6008",
      "transactionType": "CALL",
      "contractName": null,
      "contractAddress": "0x5fbdb2315678afecb367f032d93f642f64180aa3",
      "function": "mint(address,uint256)",
      "arguments": [
        "0x625F1fEEeCEa55C5500726b48DF8A568bE4A1F26",
        "10000000000"
      ],
      "transaction": {
        "from": "0xf39fd6e51aad88f6f4ce6ab8827279cfffb92266",
        "to": "0x5fbdb2315678afecb367f032d93f642f64180aa3",
        "gas": "0x11eb9",
        "value": "0x0",
        "input": "0x40c10f19000000000000000000000000625f1feeecea55c5500726b48df8a568be4a1f2600000000000000000000000000000000000000000000000000000002540be400",
        "nonce": "0x8",
        "chainId": "0x7a69"
      },
      "additionalContracts": [],
      "isFixedGasLimit": false
    }
  ],
  "receipts": [
    {
      "status": "0x1",
      "cumulativeGasUsed": "0x5208",
      "logs": [],
      "logsBloom": "0x00000000000000000000000000000000000000000000000000000000000000000000000000000000000000000000000000000000000000000000000000000000000000000000000000000000000000000000000000000000000000000000000000000000000000000000000000000000000000000000000000000000000000000000000000000000000000000000000000000000000000000000000000000000000000000000000000000000000000000000000000000000000000000000000000000000000000000000000000000000000000000000000000000000000000000000000000000000000000000000000000000000000000000000000000000000",
      "type": "0x2",
      "transactionHash": "0xfaa67b7c6355bedb8469597f7848cfc7d213272c9dc0c7df7d079c36dc978003",
      "transactionIndex": "0x0",
      "blockHash": "0x51a4dcba68176e2bbfdcb47920fb6a16e14ad2170e6c62ab8b2e1fd7450db3de",
      "blockNumber": "0x5",
      "gasUsed": "0x5208",
      "effectiveGasPrice": "0x23f77097",
      "blobGasPrice": "0x1",
      "from": "0xf39fd6e51aad88f6f4ce6ab8827279cfffb92266",
      "to": "0x625f1feeecea55c5500726b48df8a568be4a1f26",
      "contractAddress": null
    },
    {
      "status": "0x1",
      "cumulativeGasUsed": "0xcf96",
      "logs": [
        {
          "address": "0x5fbdb2315678afecb367f032d93f642f64180aa3",
          "topics": [
            "0xddf252ad1be2c89b69c2b068fc378daa952ba7f163c4a11628f55a4df523b3ef",
            "0x0000000000000000000000000000000000000000000000000000000000000000",
            "0x000000000000000000000000625f1feeecea55c5500726b48df8a568be4a1f26"
          ],
          "data": "0x00000000000000000000000000000000000000000000000000000002540be400",
          "blockHash": "0x00c2fbf6c76724d2741323cc6563082a565c8dbd5b10c28af840ab259b20590d",
          "blockNumber": "0x6",
          "blockTimestamp": "0x69b628c4",
          "transactionHash": "0x83ae3da0130b1734bf3a06e630230dfd7ba06cc1c3465a95b56336b80c3a6008",
          "transactionIndex": "0x0",
          "logIndex": "0x0",
          "removed": false
        }
      ],
      "logsBloom": "0x00000000000000000000000000000000000000000000000000000000000000000000000000000000000000000000000000000000000000000000080000000000000000000000000000000008000000000000010000000000000000000000000000000040020000000000000000000800000000000000000000008010000000000000000000000000000000000000000000000000000000000000000200000000000000000000000000000000000000000000000000000000000000000000000000000042000000000000000000000000000000000000000000000000000020000000000000000000000000000000000000000000000000000000000000000000",
      "type": "0x2",
      "transactionHash": "0x83ae3da0130b1734bf3a06e630230dfd7ba06cc1c3465a95b56336b80c3a6008",
      "transactionIndex": "0x0",
      "blockHash": "0x00c2fbf6c76724d2741323cc6563082a565c8dbd5b10c28af840ab259b20590d",
      "blockNumber": "0x6",
      "gasUsed": "0xcf96",
      "effectiveGasPrice": "0x1f7a1f03",
      "blobGasPrice": "0x1",
      "from": "0xf39fd6e51aad88f6f4ce6ab8827279cfffb92266",
      "to": "0x5fbdb2315678afecb367f032d93f642f64180aa3",
      "contractAddress": null
    }
  ],
  "libraries": [],
  "pending": [],
  "returns": {},
  "timestamp": 1773545668834,
  "chain": 31337,
  "commit": "d2f797c"
}