{
  "transactions": [
    {
      "hash": "0x87471559a15b4f0c4708ff999962b4ff76fefcb394177b91f01ec5339cdccf67",
      "transactionType": "CALL",
      "contractName": null,
      "contractAddress": "0x35011409798d5cd93b015bfdec1ac99a06301747",
      "function": null,
      "arguments": null,
      "transaction": {
        "from": "0xf39fd6e51aad88f6f4ce6ab8827279cfffb92266",
        "to": "0x35011409798d5cd93b015bfdec1ac99a06301747",
        "gas": "0x714d",
        "value": "0xde0b6b3a7640000",
        "input": "0x",
        "nonce": "0x10",
        "chainId": "0x7a69"
      },
      "additionalContracts": [],
      "isFixedGasLimit": false
    },
    {
      "hash": "0xcf0b414fdd5d0d3fab1abe36ad09bd71dabdc27b56bb83452c063c2da20ac465",
      "transactionType": "CALL",
      "contractName": null,
      "contractAddress": "0x5fbdb2315678afecb367f032d93f642f64180aa3",
      "function": "mint(address,uint256)",
      "arguments": [
        "0x35011409798d5Cd93B015bfDEC1AC99a06301747",
        "10000000000"
      ],
      "transaction": {
        "from": "0xf39fd6e51aad88f6f4ce6ab8827279cfffb92266",
        "to": "0x5fbdb2315678afecb367f032d93f642f64180aa3",
        "gas": "0x11eb9",
        "value": "0x0",
        "input": "0x40c10f1900000000000000000000000035011409798d5cd93b015bfdec1ac99a0630174700000000000000000000000000000000000000000000000000000002540be400",
        "nonce": "0x11",
        "chainId": "0x7a69"
      },
      "additionalContracts": [],
      "isFixedGasLimit": false
    }
  ],
  "receipts": [
    {
      "status": "0x1",
      "cumulativeGasUsed": "0x5208",
      "logs": [],
      "logsBloom": "0x00000000000000000000000000000000000000000000000000000000000000000000000000000000000000000000000000000000000000000000000000000000000000000000000000000000000000000000000000000000000000000000000000000000000000000000000000000000000000000000000000000000000000000000000000000000000000000000000000000000000000000000000000000000000000000000000000000000000000000000000000000000000000000000000000000000000000000000000000000000000000000000000000000000000000000000000000000000000000000000000000000000000000000000000000000000",
      "type": "0x2",
      "transactionHash": "0x87471559a15b4f0c4708ff999962b4ff76fefcb394177b91f01ec5339cdccf67",
      "transactionIndex": "0x0",
      "blockHash": "0x0c6334e0b9ea5ef25ff51773d7db534f0f34c22cd0a5324db526bcfffc6c0b2d",
      "blockNumber": "0x9",
      "gasUsed": "0x5208",
      "effectiveGasPrice": "0x15b32ba2",
      "blobGasPrice": "0x1",
      "from": "0xf39fd6e51aad88f6f4ce6ab8827279cfffb92266",
      "to": "0x35011409798d5cd93b015bfdec1ac99a06301747",
      "contractAddress": null
    },
    {
      "status": "0x1",
      "cumulativeGasUsed": "0xcf96",
      "logs": [
        {
          "address": "0x5fbdb2315678afecb367f032d93f642f64180aa3",
          "topics": [
            "0xddf252ad1be2c89b69c2b068fc378daa952ba7f163c4a11628f55a4df523b3ef",
            "0x0000000000000000000000000000000000000000000000000000000000000000",
            "0x00000000000000000000000035011409798d5cd93b015bfdec1ac99a06301747"
          ],
          "data": "0x00000000000000000000000000000000000000000000000000000002540be400",
          "blockHash": "0x3b1e218c0cd82f67bc018ef3a57034553e85c65d131d5142d79c2e33e17da05d",
          "blockNumber": "0xa",
          "blockTimestamp": "0x69b6d07b",
          "transactionHash": "0xcf0b414fdd5d0d3fab1abe36ad09bd71dabdc27b56bb83452c063c2da20ac465",
          "transactionIndex": "0x0",
          "logIndex": "0x0",
          "removed": false
        }
      ],
      "logsBloom": "0x00000000000000000000000000000000000000000000000000000000000000000000000000000000000000000000000000000000000000000000000000000000000000000000000000000008000000000000000000000000000000000000000000000040020000000000000000000800000000000000000000000010000000000000000000000000000000000000000000000000000000000000000200000000000000000000000000000000000000000000001000000000000000000000000000000042400000000000000000000000000000000000000000000000000020000000000000000000000000000000000000000020000000000000000000000000",
      "type": "0x2",
      "transactionHash": "0xcf0b414fdd5d0d3fab1abe36ad09bd71dabdc27b56bb83452c063c2da20ac465",
      "transactionIndex": "0x0",
      "blockHash": "0x3b1e218c0cd82f67bc018ef3a57034553e85c65d131d5142d79c2e33e17da05d",
      "blockNumber": "0xa",
      "gasUsed": "0xcf96",
      "effectiveGasPrice": "0x12fdbf0e",
      "blobGasPrice": "0x1",
      "from": "0xf39fd6e51aad88f6f4ce6ab8827279cfffb92266",
      "to": "0x5fbdb2315678afecb367f032d93f642f64180aa3",
      "contractAddress": null
    }
  ],
  "libraries": [],
  "pending": [],
  "returns": {},
  "timestamp": 1773588603616,
  "chain": 31337,
  "commit": "d2f797c"
}