{
  "transactions": [
    {
      "hash": "0xbb0ebbef849a9490ec0ff6bad35b1e83b5f4306e1cd9baa3f2bc6e0ad94c352d",
      "transactionType": "CALL",
      "contractName": null,
      "contractAddress": "0xdfc84469bf8c7a2ba98090bde94f5f9fc3ec2066",
      "function": "approve(address,uint256)",
      "arguments": [
        "0x127600D0833296D0722f265fd90C19DfD51EAd79",
        "2000000"
      ],
      "transaction": {
        "from": "0xbb68a2363861d595cff23abe0ac247fd36c0e7e7",
        "to": "0xdfc84469bf8c7a2ba98090bde94f5f9fc3ec2066",
        "gas": "0xf7b3",
        "value": "0x0",
        "input": "0x095ea7b3000000000000000000000000127600d0833296d0722f265fd90c19dfd51ead7900000000000000000000000000000000000000000000000000000000001e8480",
        "nonce": "0xca",
        "chainId": "0xaa36a7"
      },
      "additionalContracts": [],
      "isFixedGasLimit": false
    },
    {
      "hash": "0xe061c4b0ec67e99eec2d4dbfdba9573174cdd8171bee1d0af58fb7095e457b05",
      "transactionType": "CALL",
      "contractName": null,
      "contractAddress": "0x127600d0833296d0722f265fd90c19dfd51ead79",
      "function": "mintUsername(string,uint256,uint256)",
      "arguments": [
        "test_minter",
        "2000000",
        "5000"
      ],
      "transaction": {
        "from": "0xbb68a2363861d595cff23abe0ac247fd36c0e7e7",
        "to": "0x127600d0833296d0722f265fd90c19dfd51ead79",
        "gas": "0x60988",
        "value": "0x0",
        "input": "0x46ad126d000000000000000000000000000000000000000000000000000000000000006000000000000000000000000000000000000000000000000000000000001e84800000000000000000000000000000000000000000000000000000000000001388000000000000000000000000000000000000000000000000000000000000000b746573745f6d696e746572000000000000000000000000000000000000000000",
        "nonce": "0xcb",
        "chainId": "0xaa36a7"
      },
      "additionalContracts": [],
      "isFixedGasLimit": false
    }
  ],
  "receipts": [
    {
      "status": "0x1",
      "cumulativeGasUsed": "0xb5e12b",
      "logs": [
        {
          "address": "0xdfc84469bf8c7a2ba98090bde94f5f9fc3ec2066",
          "topics": [
            "0x8c5be1e5ebec7d5bd14f71427d1e84f3dd0314c0f7b2291e5b200ac8c7c3b925",
            "0x000000000000000000000000bb68a2363861d595cff23abe0ac247fd36c0e7e7",
            "0x000000000000000000000000127600d0833296d0722f265fd90c19dfd51ead79"
          ],
          "data": "0x00000000000000000000000000000000000000000000000000000000001e8480",
          "blockHash": "0x331c72684bef49ea60aafcf4904ba03052d2bdcf8fd8de4345ba585151787d3c",
          "blockNumber": "0xa08784",
          "blockTimestamp": "0x69c42990",
          "transactionHash": "0xbb0ebbef849a9490ec0ff6bad35b1e83b5f4306e1cd9baa3f2bc6e0ad94c352d",
          "transactionIndex": "0x51",
          "logIndex": "0x212",
          "removed": false
        }
      ],
      "logsBloom": "0x00000000000000000000000000000020000000000000000000000000008000000000000000000000000000000000000000000000000001000000000000200000000000000000000000000000000000000000000000000000000000000000000000000000000080000000000000000000000000000008000000000000000000000000000000000000000000000000000000000000040000000000000000000000020000000000000000000000008000000000000000000000000000000000000000000000000000000000000000000000000000000000000000000000000000000010000000000000000000000000000006000000000000000000000000000000",
      "type": "0x2",
      "transactionHash": "0xbb0ebbef849a9490ec0ff6bad35b1e83b5f4306e1cd9baa3f2bc6e0ad94c352d",
      "transactionIndex": "0x51",
      "blockHash": "0x331c72684bef49ea60aafcf4904ba03052d2bdcf8fd8de4345ba585151787d3c",
      "blockNumber": "0xa08784",
      "gasUsed": "0xb355",
      "effectiveGasPrice": "0xf42fd",
      "from": "0xbb68a2363861d595cff23abe0ac247fd36c0e7e7",
      "to": "0xdfc84469bf8c7a2ba98090bde94f5f9fc3ec2066",
      "contractAddress": null
    },
    {
      "status": "0x1",
      "cumulativeGasUsed": "0x16a566f",
      "logs": [
        {
          "address": "0xdfc84469bf8c7a2ba98090bde94f5f9fc3ec2066",
          "topics": [
            "0xddf252ad1be2c89b69c2b068fc378daa952ba7f163c4a11628f55a4df523b3ef",
            "0x000000000000000000000000bb68a2363861d595cff23abe0ac247fd36c0e7e7",
            "0x000000000000000000000000127600d0833296d0722f265fd90c19dfd51ead79"
          ],
          "data": "0x00000000000000000000000000000000000000000000000000000000000f4240",
          "blockHash": "0x2f847b536043bb5c259edd8db7f3b2973a3fbed7d15b854e4cf76ba0f8e0ae1c",
          "blockNumber": "0xa08785",
          "blockTimestamp": "0x69c4299c",
          "transactionHash": "0xe061c4b0ec67e99eec2d4dbfdba9573174cdd8171bee1d0af58fb7095e457b05",
          "transactionIndex": "0x8e",
          "logIndex": "0x33c",
          "removed": false
        },
        {
          "address": "0xdfc84469bf8c7a2ba98090bde94f5f9fc3ec2066",
          "topics": [
            "0xddf252ad1be2c89b69c2b068fc378daa952ba7f163c4a11628f55a4df523b3ef",
            "0x000000000000000000000000127600d0833296d0722f265fd90c19dfd51ead79",
            "0x0000000000000000000000007cd29f64fb3198d3c78dbbfbcd38bd3ae59734ec"
          ],
          "data": "0x00000000000000000000000000000000000000000000000000000000000f4240",
          "blockHash": "0x2f847b536043bb5c259edd8db7f3b2973a3fbed7d15b854e4cf76ba0f8e0ae1c",
          "blockNumber": "0xa08785",
          "blockTimestamp": "0x69c4299c",
          "transactionHash": "0xe061c4b0ec67e99eec2d4dbfdba9573174cdd8171bee1d0af58fb7095e457b05",
          "transactionIndex": "0x8e",
          "logIndex": "0x33d",
          "removed": false
        },
        {
          "address": "0xf4a630f0a939db59dd35408ecfd6ea3429c87f5c",
          "topics": [
            "0xddf252ad1be2c89b69c2b068fc378daa952ba7f163c4a11628f55a4df523b3ef",
            "0x0000000000000000000000000000000000000000000000000000000000000000",
            "0x0000000000000000000000007cd29f64fb3198d3c78dbbfbcd38bd3ae59734ec"
          ],
          "data": "0x0000000000000000000000000000000000000000000000000de0b6b3a7640000",
          "blockHash": "0x2f847b536043bb5c259edd8db7f3b2973a3fbed7d15b854e4cf76ba0f8e0ae1c",
          "blockNumber": "0xa08785",
          "blockTimestamp": "0x69c4299c",
          "transactionHash": "0xe061c4b0ec67e99eec2d4dbfdba9573174cdd8171bee1d0af58fb7095e457b05",
          "transactionIndex": "0x8e",
          "logIndex": "0x33e",
          "removed": false
        },
        {
          "address": "0x612a924857edc7026368c70b86a4b7b1dcf91959",
          "topics": [
            "0xddf252ad1be2c89b69c2b068fc378daa952ba7f163c4a11628f55a4df523b3ef",
            "0x0000000000000000000000000000000000000000000000000000000000000000",
            "0x000000000000000000000000bb68a2363861d595cff23abe0ac247fd36c0e7e7"
          ],
          "data": "0x00000000000000000000000000000000000000000000000006f05b59d3b20000",
          "blockHash": "0x2f847b536043bb5c259edd8db7f3b2973a3fbed7d15b854e4cf76ba0f8e0ae1c",
          "blockNumber": "0xa08785",
          "blockTimestamp": "0x69c4299c",
          "transactionHash": "0xe061c4b0ec67e99eec2d4dbfdba9573174cdd8171bee1d0af58fb7095e457b05",
          "transactionIndex": "0x8e",
          "logIndex": "0x33f",
          "removed": false
        },
        {
          "address": "0x612a924857edc7026368c70b86a4b7b1dcf91959",
          "topics": [
            "0xddf252ad1be2c89b69c2b068fc378daa952ba7f163c4a11628f55a4df523b3ef",
            "0x0000000000000000000000000000000000000000000000000000000000000000",
            "0x000000000000000000000000bb68a2363861d595cff23abe0ac247fd36c0e7e7"
          ],
          "data": "0x00000000000000000000000000000000000000000000000006f05b59d3b20000",
          "blockHash": "0x2f847b536043bb5c259edd8db7f3b2973a3fbed7d15b854e4cf76ba0f8e0ae1c",
          "blockNumber": "0xa08785",
          "blockTimestamp": "0x69c4299c",
          "transactionHash": "0xe061c4b0ec67e99eec2d4dbfdba9573174cdd8171bee1d0af58fb7095e457b05",
          "transactionIndex": "0x8e",
          "logIndex": "0x340",
          "removed": false
        },
        {
          "address": "0x7cd29f64fb3198d3c78dbbfbcd38bd3ae59734ec",
          "topics": [
            "0x679a907221acd9b5e34b65b57444208f8c1b2938604515519cfc299108e92cc0",
            "0x000000000000000000000000bb68a2363861d595cff23abe0ac247fd36c0e7e7",
            "0x000000000000000000000000bb68a2363861d595cff23abe0ac247fd36c0e7e7",
            "0x000000000000000000000000dfc84469bf8c7a2ba98090bde94f5f9fc3ec2066"
          ],
          "data": "0x00000000000000000000000000000000000000000000000000000000000f42400000000000000000000000000000000000000000000000000de0b6b3a76400000000000000000000000000000000000000000000000000000de0b6b3a7640000000000000000000000000000127600d0833296d0722f265fd90c19dfd51ead790000000000000000000000000000000000000000000000000000000000000005",
          "blockHash": "0x2f847b536043bb5c259edd8db7f3b2973a3fbed7d15b854e4cf76ba0f8e0ae1c",
          "blockNumber": "0xa08785",
          "blockTimestamp": "0x69c4299c",
          "transactionHash": "0xe061c4b0ec67e99eec2d4dbfdba9573174cdd8171bee1d0af58fb7095e457b05",
          "transactionIndex": "0x8e",
          "logIndex": "0x341",
          "removed": false
        },
        {
          "address": "0xdfc84469bf8c7a2ba98090bde94f5f9fc3ec2066",
          "topics": [
            "0xddf252ad1be2c89b69c2b068fc378daa952ba7f163c4a11628f55a4df523b3ef",
            "0x000000000000000000000000bb68a2363861d595cff23abe0ac247fd36c0e7e7",
            "0x000000000000000000000000bb68a2363861d595cff23abe0ac247fd36c0e7e7"
          ],
          "data": "0x00000000000000000000000000000000000000000000000000000000000f4240",
          "blockHash": "0x2f847b536043bb5c259edd8db7f3b2973a3fbed7d15b854e4cf76ba0f8e0ae1c",
          "blockNumber": "0xa08785",
          "blockTimestamp": "0x69c4299c",
          "transactionHash": "0xe061c4b0ec67e99eec2d4dbfdba9573174cdd8171bee1d0af58fb7095e457b05",
          "transactionIndex": "0x8e",
          "logIndex": "0x342",
          "removed": false
        },
        {
          "address": "0x127600d0833296d0722f265fd90c19dfd51ead79",
          "topics": [
            "0xddf252ad1be2c89b69c2b068fc378daa952ba7f163c4a11628f55a4df523b3ef",
            "0x0000000000000000000000000000000000000000000000000000000000000000",
            "0x000000000000000000000000bb68a2363861d595cff23abe0ac247fd36c0e7e7",
            "0x0000000000000000000000000000000000000000000000000000000000000001"
          ],
          "data": "0x",
          "blockHash": "0x2f847b536043bb5c259edd8db7f3b2973a3fbed7d15b854e4cf76ba0f8e0ae1c",
          "blockNumber": "0xa08785",
          "blockTimestamp": "0x69c4299c",
          "transactionHash": "0xe061c4b0ec67e99eec2d4dbfdba9573174cdd8171bee1d0af58fb7095e457b05",
          "transactionIndex": "0x8e",
          "logIndex": "0x343",
          "removed": false
        },
        {
          "address": "0x127600d0833296d0722f265fd90c19dfd51ead79",
          "topics": [
            "0x51abcebaf89a044f0a195909fa9f49c1d56153f63264b0c5caff8bfc0cc80aa8",
            "0x000000000000000000000000bb68a2363861d595cff23abe0ac247fd36c0e7e7",
            "0x0000000000000000000000000000000000000000000000000000000000000001"
          ],
          "data": "0x00000000000000000000000000000000000000000000000000000000000000c00000000000000000000000000000000000000000000000000000000000000015000000000000000000000000000000000000000000000000000000000000000100000000000000000000000000000000000000000000000000000000000000010000000000000000000000000000000000000000000000000000000069c4299c0000000000000000000000000000000000000000000000000000000000000100000000000000000000000000000000000000000000000000000000000000000b746573745f6d696e74657200000000000000000000000000000000000000000000000000000000000000000000000000000000000000000000000000000000e000000000000000000000000000000000000000000000000000000000000000200000000000000000000000000000000000000000000000000000000000000001000000000000000000000000000000000000000000000000000000000000008000000000000000000000000000000000000000000000000000000000001e84800000000000000000000000000000000000000000000000000000000000001388000000000000000000000000000000000000000000000000000000000000000b746573745f6d696e746572000000000000000000000000000000000000000000",
          "blockHash": "0x2f847b536043bb5c259edd8db7f3b2973a3fbed7d15b854e4cf76ba0f8e0ae1c",
          "blockNumber": "0xa08785",
          "blockTimestamp": "0x69c4299c",
          "transactionHash": "0xe061c4b0ec67e99eec2d4dbfdba9573174cdd8171bee1d0af58fb7095e457b05",
          "transactionIndex": "0x8e",
          "logIndex": "0x344",
          "removed": false
        }
      ],
      "logsBloom": "0x040000000000000000000000000000200000000000000000200000000080000000000000000010000000000000000000000002000000010000000000000400000000800000000000000000080000000840000000000400000000000000000000000000000200a0000040000000000802000100000008000000000010000000000000000000000000002000008000000000000000040000000001000000000000000000000020000000000000808000000000000000000080000000000000000000000002000000000000000000000000000000000000000000000000000060000000000200000000000000020000000006000000004000008000000002000000",
      "type": "0x2",
      "transactionHash": "0xe061c4b0ec67e99eec2d4dbfdba9573174cdd8171bee1d0af58fb7095e457b05",
      "transactionIndex": "0x8e",
      "blockHash": "0x2f847b536043bb5c259edd8db7f3b2973a3fbed7d15b854e4cf76ba0f8e0ae1c",
      "blockNumber": "0xa08785",
      "gasUsed": "0x45ef0",
      "effectiveGasPrice": "0xf42fd",
      "from": "0xbb68a2363861d595cff23abe0ac247fd36c0e7e7",
      "to": "0x127600d0833296d0722f265fd90c19dfd51ead79",
      "contractAddress": null
    }
  ],
  "libraries": [],
  "pending": [],
  "returns": {},
  "timestamp": 1774463389266,
  "chain": 11155111,
  "commit": "1df76d8"
}